{
  "_format": "hh-sol-artifact-1",
  "contractName": "Transactions",
  "sourceName": "contracts/Transactions.sol",
  "abi": [
    {
      "anonymous": false,
      "inputs": [
        {
          "indexed": false,
          "internalType": "address",
          "name": "approver",
          "type": "address"
        },
        {
          "indexed": false,
          "internalType": "address",
          "name": "requester",
          "type": "address"
        },
        {
          "indexed": false,
          "internalType": "uint256",
          "name": "amount",
          "type": "uint256"
        }
      ],
      "name": "RequestApproved",
      "type": "event"
    },
    {
      "anonymous": false,
      "inputs": [
        {
          "indexed": false,
          "internalType": "address",
          "name": "from",
          "type": "address"
        },
        {
          "indexed": false,
          "internalType": "address",
          "name": "requester",
          "type": "address"
        },
        {
          "indexed": false,
          "internalType": "uint256",
          "name": "amount",
          "type": "uint256"
        },
        {
          "indexed": false,
          "internalType": "string",
          "name": "message",
          "type": "string"
        },
        {
          "indexed": false,
          "internalType": "uint256",
          "name": "timestamp",
          "type": "uint256"
        }
      ],
      "name": "RequestCreated",
      "type": "event"
    },
    {
      "anonymous": false,
      "inputs": [
        {
          "indexed": false,
          "internalType": "address",
          "name": "approver",
          "type": "address"
        },
        {
          "indexed": false,
          "internalType": "address",
          "name": "requester",
          "type": "address"
        },
        {
          "indexed": false,
          "internalType": "uint256",
          "name": "amount",
          "type": "uint256"
        }
      ],
      "name": "RequestFulfilled",
      "type": "event"
    },
    {
      "anonymous": false,
      "inputs": [
        {
          "indexed": false,
          "internalType": "address",
          "name": "from",
          "type": "address"
        },
        {
          "indexed": false,
          "internalType": "address",
          "name": "receiver",
          "type": "address"
        },
        {
          "indexed": false,
          "internalType": "uint256",
          "name": "amount",
          "type": "uint256"
        },
        {
          "indexed": false,
          "internalType": "string",
          "name": "message",
          "type": "string"
        },
        {
          "indexed": false,
          "internalType": "uint256",
          "name": "timestamp",
          "type": "uint256"
        }
      ],
      "name": "Transfer",
      "type": "event"
    },
    {
      "inputs": [
        {
          "internalType": "address payable",
          "name": "receiver",
          "type": "address"
        },
        {
          "internalType": "uint256",
          "name": "amount",
          "type": "uint256"
        },
        {
          "internalType": "string",
          "name": "message",
          "type": "string"
        }
      ],
      "name": "addToBlockchain",
      "outputs": [],
      "stateMutability": "nonpayable",
      "type": "function"
    },
    {
      "inputs": [
        {
          "internalType": "uint256",
          "name": "requestIndex",
          "type": "uint256"
        }
      ],
      "name": "approveRequest",
      "outputs": [],
      "stateMutability": "nonpayable",
      "type": "function"
    },
    {
      "inputs": [
        {
          "internalType": "address",
          "name": "from",
          "type": "address"
        },
        {
          "internalType": "uint256",
          "name": "amount",
          "type": "uint256"
        },
        {
          "internalType": "string",
          "name": "message",
          "type": "string"
        }
      ],
      "name": "createRequest",
      "outputs": [],
      "stateMutability": "nonpayable",
      "type": "function"
    },
    {
      "inputs": [
        {
          "internalType": "uint256",
          "name": "requestIndex",
          "type": "uint256"
        }
      ],
      "name": "fulfillRequest",
      "outputs": [],
      "stateMutability": "payable",
      "type": "function"
    },
    {
      "inputs": [],
      "name": "getAllTransactions",
      "outputs": [
        {
          "components": [
            {
              "internalType": "address",
              "name": "sender",
              "type": "address"
            },
            {
              "internalType": "address",
              "name": "receiver",
              "type": "address"
            },
            {
              "internalType": "uint256",
              "name": "amount",
              "type": "uint256"
            },
            {
              "internalType": "string",
              "name": "message",
              "type": "string"
            },
            {
              "internalType": "uint256",
              "name": "timestamp",
              "type": "uint256"
            }
          ],
          "internalType": "struct Transactions.TransferStruct[]",
          "name": "",
          "type": "tuple[]"
        }
      ],
      "stateMutability": "view",
      "type": "function"
    },
    {
      "inputs": [
        {
          "internalType": "address",
          "name": "user",
          "type": "address"
        }
      ],
      "name": "getRequests",
      "outputs": [
        {
          "components": [
            {
              "internalType": "address",
              "name": "requester",
              "type": "address"
            },
            {
              "internalType": "uint256",
              "name": "amount",
              "type": "uint256"
            },
            {
              "internalType": "string",
              "name": "message",
              "type": "string"
            },
            {
              "internalType": "bool",
              "name": "approved",
              "type": "bool"
            },
            {
              "internalType": "bool",
              "name": "fulfilled",
              "type": "bool"
            },
            {
              "internalType": "uint256",
              "name": "timestamp",
              "type": "uint256"
            }
          ],
          "internalType": "struct Transactions.RequestStruct[]",
          "name": "",
          "type": "tuple[]"
        }
      ],
      "stateMutability": "view",
      "type": "function"
    },
    {
      "inputs": [],
      "name": "getTransactionCount",
      "outputs": [
        {
          "internalType": "uint256",
          "name": "",
          "type": "uint256"
        }
      ],
      "stateMutability": "view",
      "type": "function"
    },
    {
      "inputs": [
        {
          "internalType": "address",
          "name": "",
          "type": "address"
        },
        {
          "internalType": "uint256",
          "name": "",
          "type": "uint256"
        }
      ],
      "name": "requests",
      "outputs": [
        {
          "internalType": "address",
          "name": "requester",
          "type": "address"
        },
        {
          "internalType": "uint256",
          "name": "amount",
          "type": "uint256"
        },
        {
          "internalType": "string",
          "name": "message",
          "type": "string"
        },
        {
          "internalType": "bool",
          "name": "approved",
          "type": "bool"
        },
        {
          "internalType": "bool",
          "name": "fulfilled",
          "type": "bool"
        },
        {
          "internalType": "uint256",
          "name": "timestamp",
          "type": "uint256"
        }
      ],
      "stateMutability": "view",
      "type": "function"
    }
  ],
  "bytecode": "0x608060405234801561001057600080fd5b50611cd0806100206000396000f3fe60806040526004361061007b5760003560e01c80639ecebe2a1161004e5780639ecebe2a1461012f578063ba9a7a9e14610171578063d7d1bbdb1461019a578063eb12da4a146101c35761007b565b806327506f53146100805780632e7700f0146100ab578063804e44f3146100d65780639a91eb0d14610113575b600080fd5b34801561008c57600080fd5b506100956101ec565b6040516100a29190611880565b60405180910390f35b3480156100b757600080fd5b506100c061039d565b6040516100cd9190611942565b60405180910390f35b3480156100e257600080fd5b506100fd60048036038101906100f89190611183565b6103a6565b60405161010a919061185e565b60405180910390f35b61012d600480360381019061012891906112b6565b610576565b005b34801561013b57600080fd5b5061015660048036038101906101519190611213565b6109df565b604051610168969594939291906117f6565b60405180910390f35b34801561017d57600080fd5b506101986004803603810190610193919061124f565b610afa565b005b3480156101a657600080fd5b506101c160048036038101906101bc91906112b6565b610cec565b005b3480156101cf57600080fd5b506101ea60048036038101906101e591906111ac565b610e9d565b005b60606001805480602002602001604051908101604052809291908181526020016000905b8282101561039457838290600052602060002090600502016040518060a00160405290816000820160009054906101000a900473ffffffffffffffffffffffffffffffffffffffff1673ffffffffffffffffffffffffffffffffffffffff1673ffffffffffffffffffffffffffffffffffffffff1681526020016001820160009054906101000a900473ffffffffffffffffffffffffffffffffffffffff1673ffffffffffffffffffffffffffffffffffffffff1673ffffffffffffffffffffffffffffffffffffffff168152602001600282015481526020016003820180546102f990611b85565b80601f016020809104026020016040519081016040528092919081815260200182805461032590611b85565b80156103725780601f1061034757610100808354040283529160200191610372565b820191906000526020600020905b81548152906001019060200180831161035557829003601f168201915b5050505050815260200160048201548152505081526020019060010190610210565b50505050905090565b60008054905090565b6060600260008373ffffffffffffffffffffffffffffffffffffffff1673ffffffffffffffffffffffffffffffffffffffff168152602001908152602001600020805480602002602001604051908101604052809291908181526020016000905b8282101561056b57838290600052602060002090600502016040518060c00160405290816000820160009054906101000a900473ffffffffffffffffffffffffffffffffffffffff1673ffffffffffffffffffffffffffffffffffffffff1673ffffffffffffffffffffffffffffffffffffffff1681526020016001820154815260200160028201805461049a90611b85565b80601f01602080910402602001604051908101604052809291908181526020018280546104c690611b85565b80156105135780601f106104e857610100808354040283529160200191610513565b820191906000526020600020905b8154815290600101906020018083116104f657829003601f168201915b505050505081526020016003820160009054906101000a900460ff161515151581526020016003820160019054906101000a900460ff1615151515815260200160048201548152505081526020019060010190610407565b505050509050919050565b6000600260003373ffffffffffffffffffffffffffffffffffffffff1673ffffffffffffffffffffffffffffffffffffffff16815260200190815260200160002082815481106105ef577f4e487b7100000000000000000000000000000000000000000000000000000000600052603260045260246000fd5b906000526020600020906005020190508060030160009054906101000a900460ff16610650576040517f08c379a0000000000000000000000000000000000000000000000000000000008152600401610647906118a2565b60405180910390fd5b8060030160019054906101000a900460ff16156106a2576040517f08c379a0000000000000000000000000000000000000000000000000000000008152600401610699906118e2565b60405180910390fd5b806001015434146106e8576040517f08c379a00000000000000000000000000000000000000000000000000000000081526004016106df90611902565b60405180910390fd5b60018160030160016101000a81548160ff0219169083151502179055508060000160009054906101000a900473ffffffffffffffffffffffffffffffffffffffff1673ffffffffffffffffffffffffffffffffffffffff166108fc349081150290604051600060405180830381858888f1935050505015801561076f573d6000803e3d6000fd5b5060016040518060a001604052803373ffffffffffffffffffffffffffffffffffffffff1681526020018360000160009054906101000a900473ffffffffffffffffffffffffffffffffffffffff1673ffffffffffffffffffffffffffffffffffffffff168152602001836001015481526020018360020180546107f290611b85565b80601f016020809104026020016040519081016040528092919081815260200182805461081e90611b85565b801561086b5780601f106108405761010080835404028352916020019161086b565b820191906000526020600020905b81548152906001019060200180831161084e57829003601f168201915b5050505050815260200142815250908060018154018082558091505060019003906000526020600020906005020160009091909190915060008201518160000160006101000a81548173ffffffffffffffffffffffffffffffffffffffff021916908373ffffffffffffffffffffffffffffffffffffffff16021790555060208201518160010160006101000a81548173ffffffffffffffffffffffffffffffffffffffff021916908373ffffffffffffffffffffffffffffffffffffffff160217905550604082015181600201556060820151816003019080519060200190610956929190611039565b5060808201518160040155505060016000808282546109759190611a5d565b925050819055507f84ec25b59940488f00ce0dea9ef60d1d8192093ef1e1f3acbd54bdd0f8f385f2338260000160009054906101000a900473ffffffffffffffffffffffffffffffffffffffff16346040516109d393929190611765565b60405180910390a15050565b600260205281600052604060002081815481106109fb57600080fd5b9060005260206000209060050201600091509150508060000160009054906101000a900473ffffffffffffffffffffffffffffffffffffffff1690806001015490806002018054610a4b90611b85565b80601f0160208091040260200160405190810160405280929190818152602001828054610a7790611b85565b8015610ac45780601f10610a9957610100808354040283529160200191610ac4565b820191906000526020600020905b815481529060010190602001808311610aa757829003601f168201915b5050505050908060030160009054906101000a900460ff16908060030160019054906101000a900460ff16908060040154905086565b60008211610b3d576040517f08c379a0000000000000000000000000000000000000000000000000000000008152600401610b34906118c2565b60405180910390fd5b600260008473ffffffffffffffffffffffffffffffffffffffff1673ffffffffffffffffffffffffffffffffffffffff1681526020019081526020016000206040518060c001604052803373ffffffffffffffffffffffffffffffffffffffff16815260200184815260200183815260200160001515815260200160001515815260200142815250908060018154018082558091505060019003906000526020600020906005020160009091909190915060008201518160000160006101000a81548173ffffffffffffffffffffffffffffffffffffffff021916908373ffffffffffffffffffffffffffffffffffffffff160217905550602082015181600101556040820151816002019080519060200190610c5b929190611039565b5060608201518160030160006101000a81548160ff02191690831515021790555060808201518160030160016101000a81548160ff02191690831515021790555060a0820151816004015550507f22d31cf6ef295b911d222da3f4f5d46a67f14090c85d0018ae127d0533eb61ef8333848442604051610cdf95949392919061179c565b60405180910390a1505050565b6000600260003373ffffffffffffffffffffffffffffffffffffffff1673ffffffffffffffffffffffffffffffffffffffff1681526020019081526020016000208281548110610d65577f4e487b7100000000000000000000000000000000000000000000000000000000600052603260045260246000fd5b906000526020600020906005020190508060030160009054906101000a900460ff1615610dc7576040517f08c379a0000000000000000000000000000000000000000000000000000000008152600401610dbe90611922565b60405180910390fd5b8060030160019054906101000a900460ff1615610e19576040517f08c379a0000000000000000000000000000000000000000000000000000000008152600401610e10906118e2565b60405180910390fd5b60018160030160006101000a81548160ff0219169083151502179055507fd9a9c1b40a747e79bd4c1aeabd897bfd5b3679e58fcdcd20dd7af4a8274196bc338260000160009054906101000a900473ffffffffffffffffffffffffffffffffffffffff168360010154604051610e9193929190611765565b60405180910390a15050565b6001600080828254610eaf9190611a5d565b9250508190555060016040518060a001604052803373ffffffffffffffffffffffffffffffffffffffff1681526020018573ffffffffffffffffffffffffffffffffffffffff16815260200184815260200183815260200142815250908060018154018082558091505060019003906000526020600020906005020160009091909190915060008201518160000160006101000a81548173ffffffffffffffffffffffffffffffffffffffff021916908373ffffffffffffffffffffffffffffffffffffffff16021790555060208201518160010160006101000a81548173ffffffffffffffffffffffffffffffffffffffff021916908373ffffffffffffffffffffffffffffffffffffffff160217905550604082015181600201556060820151816003019080519060200190610fe8929190611039565b506080820151816004015550507fc4b32d7ff75a51e487f3cbb5d3202f2efecca1f4c2b987e0039c1d3220b48a83338484844260405161102c95949392919061170b565b60405180910390a1505050565b82805461104590611b85565b90600052602060002090601f01602090048101928261106757600085556110ae565b82601f1061108057805160ff19168380011785556110ae565b828001600101855582156110ae579182015b828111156110ad578251825591602001919060010190611092565b5b5090506110bb91906110bf565b5090565b5b808211156110d85760008160009055506001016110c0565b5090565b60006110ef6110ea8461198e565b61195d565b90508281526020810184848401111561110757600080fd5b611112848285611b43565b509392505050565b60008135905061112981611c55565b92915050565b60008135905061113e81611c6c565b92915050565b600082601f83011261115557600080fd5b81356111658482602086016110dc565b91505092915050565b60008135905061117d81611c83565b92915050565b60006020828403121561119557600080fd5b60006111a38482850161111a565b91505092915050565b6000806000606084860312156111c157600080fd5b60006111cf8682870161112f565b93505060206111e08682870161116e565b925050604084013567ffffffffffffffff8111156111fd57600080fd5b61120986828701611144565b9150509250925092565b6000806040838503121561122657600080fd5b60006112348582860161111a565b92505060206112458582860161116e565b9150509250929050565b60008060006060848603121561126457600080fd5b60006112728682870161111a565b93505060206112838682870161116e565b925050604084013567ffffffffffffffff8111156112a057600080fd5b6112ac86828701611144565b9150509250925092565b6000602082840312156112c857600080fd5b60006112d68482850161116e565b91505092915050565b60006112eb83836115ee565b905092915050565b60006112ff8383611677565b905092915050565b61131081611b0d565b82525050565b61131f81611ab3565b82525050565b61132e81611ab3565b82525050565b600061133f826119de565b6113498185611a19565b93508360208202850161135b856119be565b8060005b85811015611397578484038952815161137885826112df565b9450611383836119ff565b925060208a0199505060018101905061135f565b50829750879550505050505092915050565b60006113b4826119e9565b6113be8185611a2a565b9350836020820285016113d0856119ce565b8060005b8581101561140c57848403895281516113ed85826112f3565b94506113f883611a0c565b925060208a019950506001810190506113d4565b50829750879550505050505092915050565b61142781611ad7565b82525050565b61143681611ad7565b82525050565b6000611447826119f4565b6114518185611a3b565b9350611461818560208601611b52565b61146a81611c44565b840191505092915050565b6000611480826119f4565b61148a8185611a4c565b935061149a818560208601611b52565b6114a381611c44565b840191505092915050565b60006114bb601483611a4c565b91507f52657175657374206e6f7420617070726f7665640000000000000000000000006000830152602082019050919050565b60006114fb602083611a4c565b91507f416d6f756e74206d7573742062652067726561746572207468616e207a65726f6000830152602082019050919050565b600061153b601983611a4c565b91507f5265717565737420616c72656164792066756c66696c6c6564000000000000006000830152602082019050919050565b600061157b601483611a4c565b91507f496e636f72726563742045544820616d6f756e740000000000000000000000006000830152602082019050919050565b60006115bb601883611a4c565b91507f5265717565737420616c726561647920617070726f76656400000000000000006000830152602082019050919050565b600060c0830160008301516116066000860182611316565b50602083015161161960208601826116ed565b5060408301518482036040860152611631828261143c565b9150506060830151611646606086018261141e565b506080830151611659608086018261141e565b5060a083015161166c60a08601826116ed565b508091505092915050565b600060a08301600083015161168f6000860182611316565b5060208301516116a26020860182611316565b5060408301516116b560408601826116ed565b50606083015184820360608601526116cd828261143c565b91505060808301516116e260808601826116ed565b508091505092915050565b6116f681611b03565b82525050565b61170581611b03565b82525050565b600060a0820190506117206000830188611325565b61172d6020830187611307565b61173a60408301866116fc565b818103606083015261174c8185611475565b905061175b60808301846116fc565b9695505050505050565b600060608201905061177a6000830186611325565b6117876020830185611325565b61179460408301846116fc565b949350505050565b600060a0820190506117b16000830188611325565b6117be6020830187611325565b6117cb60408301866116fc565b81810360608301526117dd8185611475565b90506117ec60808301846116fc565b9695505050505050565b600060c08201905061180b6000830189611325565b61181860208301886116fc565b818103604083015261182a8187611475565b9050611839606083018661142d565b611846608083018561142d565b61185360a08301846116fc565b979650505050505050565b600060208201905081810360008301526118788184611334565b905092915050565b6000602082019050818103600083015261189a81846113a9565b905092915050565b600060208201905081810360008301526118bb816114ae565b9050919050565b600060208201905081810360008301526118db816114ee565b9050919050565b600060208201905081810360008301526118fb8161152e565b9050919050565b6000602082019050818103600083015261191b8161156e565b9050919050565b6000602082019050818103600083015261193b816115ae565b9050919050565b600060208201905061195760008301846116fc565b92915050565b6000604051905081810181811067ffffffffffffffff8211171561198457611983611c15565b5b8060405250919050565b600067ffffffffffffffff8211156119a9576119a8611c15565b5b601f19601f8301169050602081019050919050565b6000819050602082019050919050565b6000819050602082019050919050565b600081519050919050565b600081519050919050565b600081519050919050565b6000602082019050919050565b6000602082019050919050565b600082825260208201905092915050565b600082825260208201905092915050565b600082825260208201905092915050565b600082825260208201905092915050565b6000611a6882611b03565b9150611a7383611b03565b9250827fffffffffffffffffffffffffffffffffffffffffffffffffffffffffffffffff03821115611aa857611aa7611bb7565b5b828201905092915050565b6000611abe82611ae3565b9050919050565b6000611ad082611ae3565b9050919050565b60008115159050919050565b600073ffffffffffffffffffffffffffffffffffffffff82169050919050565b6000819050919050565b6000611b1882611b1f565b9050919050565b6000611b2a82611b31565b9050919050565b6000611b3c82611ae3565b9050919050565b82818337600083830152505050565b60005b83811015611b70578082015181840152602081019050611b55565b83811115611b7f576000848401525b50505050565b60006002820490506001821680611b9d57607f821691505b60208210811415611bb157611bb0611be6565b5b50919050565b7f4e487b7100000000000000000000000000000000000000000000000000000000600052601160045260246000fd5b7f4e487b7100000000000000000000000000000000000000000000000000000000600052602260045260246000fd5b7f4e487b7100000000000000000000000000000000000000000000000000000000600052604160045260246000fd5b6000601f19601f8301169050919050565b611c5e81611ab3565b8114611c6957600080fd5b50565b611c7581611ac5565b8114611c8057600080fd5b50565b611c8c81611b03565b8114611c9757600080fd5b5056fea2646970667358221220dfeea05a6388dbbeb7b21f6bea06173de40b0219b0e8e3a967baa0774af94a2e64736f6c63430008000033",
  "linkReferences": {},
  "deployedLinkReferences": {}
}