{
  "_format": "hh-sol-artifact-1",
  "contractName": "Transactions",
  "sourceName": "contracts/Transactions.sol",
  "abi": [
    {
      "anonymous": false,
      "inputs": [
        {
          "indexed": false,
          "internalType": "uint256",
          "name": "requestId",
          "type": "uint256"
        },
        {
          "indexed": false,
          "internalType": "address",
          "name": "requester",
          "type": "address"
        },
        {
          "indexed": false,
          "internalType": "address",
          "name": "from",
          "type": "address"
        },
        {
          "indexed": false,
          "internalType": "uint256",
          "name": "amount",
          "type": "uint256"
        },
        {
          "indexed": false,
          "internalType": "string",
          "name": "message",
          "type": "string"
        },
        {
          "indexed": false,
          "internalType": "uint256",
          "name": "timestamp",
          "type": "uint256"
        }
      ],
      "name": "RequestETH",
      "type": "event"
    },
    {
      "anonymous": false,
      "inputs": [
        {
          "indexed": false,
          "internalType": "uint256",
          "name": "requestId",
          "type": "uint256"
        },
        {
          "indexed": false,
          "internalType": "address",
          "name": "requester",
          "type": "address"
        },
        {
          "indexed": false,
          "internalType": "address",
          "name": "from",
          "type": "address"
        },
        {
          "indexed": false,
          "internalType": "uint256",
          "name": "amount",
          "type": "uint256"
        },
        {
          "indexed": false,
          "internalType": "uint256",
          "name": "timestamp",
          "type": "uint256"
        }
      ],
      "name": "RequestFulfilled",
      "type": "event"
    },
    {
      "anonymous": false,
      "inputs": [
        {
          "indexed": false,
          "internalType": "address",
          "name": "from",
          "type": "address"
        },
        {
          "indexed": false,
          "internalType": "address",
          "name": "receiver",
          "type": "address"
        },
        {
          "indexed": false,
          "internalType": "uint256",
          "name": "amount",
          "type": "uint256"
        },
        {
          "indexed": false,
          "internalType": "string",
          "name": "message",
          "type": "string"
        },
        {
          "indexed": false,
          "internalType": "uint256",
          "name": "timestamp",
          "type": "uint256"
        }
      ],
      "name": "Transfer",
      "type": "event"
    },
    {
      "inputs": [
        {
          "internalType": "address payable",
          "name": "receiver",
          "type": "address"
        },
        {
          "internalType": "uint256",
          "name": "amount",
          "type": "uint256"
        },
        {
          "internalType": "string",
          "name": "message",
          "type": "string"
        }
      ],
      "name": "addToBlockchain",
      "outputs": [],
      "stateMutability": "nonpayable",
      "type": "function"
    },
    {
      "inputs": [
        {
          "internalType": "uint256",
          "name": "requestId",
          "type": "uint256"
        }
      ],
      "name": "approveRequest",
      "outputs": [],
      "stateMutability": "payable",
      "type": "function"
    },
    {
      "inputs": [],
      "name": "getAllRequests",
      "outputs": [
        {
          "components": [
            {
              "internalType": "address",
              "name": "requester",
              "type": "address"
            },
            {
              "internalType": "address",
              "name": "from",
              "type": "address"
            },
            {
              "internalType": "uint256",
              "name": "amount",
              "type": "uint256"
            },
            {
              "internalType": "string",
              "name": "message",
              "type": "string"
            },
            {
              "internalType": "uint256",
              "name": "timestamp",
              "type": "uint256"
            },
            {
              "internalType": "bool",
              "name": "fulfilled",
              "type": "bool"
            }
          ],
          "internalType": "struct Transactions.RequestStruct[]",
          "name": "",
          "type": "tuple[]"
        }
      ],
      "stateMutability": "view",
      "type": "function"
    },
    {
      "inputs": [],
      "name": "getAllTransactions",
      "outputs": [
        {
          "components": [
            {
              "internalType": "address",
              "name": "sender",
              "type": "address"
            },
            {
              "internalType": "address",
              "name": "receiver",
              "type": "address"
            },
            {
              "internalType": "uint256",
              "name": "amount",
              "type": "uint256"
            },
            {
              "internalType": "string",
              "name": "message",
              "type": "string"
            },
            {
              "internalType": "uint256",
              "name": "timestamp",
              "type": "uint256"
            }
          ],
          "internalType": "struct Transactions.TransferStruct[]",
          "name": "",
          "type": "tuple[]"
        }
      ],
      "stateMutability": "view",
      "type": "function"
    },
    {
      "inputs": [],
      "name": "getRequestCount",
      "outputs": [
        {
          "internalType": "uint256",
          "name": "",
          "type": "uint256"
        }
      ],
      "stateMutability": "view",
      "type": "function"
    },
    {
      "inputs": [],
      "name": "getTransactionCount",
      "outputs": [
        {
          "internalType": "uint256",
          "name": "",
          "type": "uint256"
        }
      ],
      "stateMutability": "view",
      "type": "function"
    },
    {
      "inputs": [
        {
          "internalType": "address",
          "name": "from",
          "type": "address"
        },
        {
          "internalType": "uint256",
          "name": "amount",
          "type": "uint256"
        },
        {
          "internalType": "string",
          "name": "message",
          "type": "string"
        }
      ],
      "name": "requestETH",
      "outputs": [],
      "stateMutability": "nonpayable",
      "type": "function"
    }
  ],
  "bytecode": "0x608060405234801561001057600080fd5b50611b38806100206000396000f3fe6080604052600436106100705760003560e01c8063a023a5d01161004e578063a023a5d0146100f6578063d7d1bbdb1461011f578063eb12da4a1461013b578063fb1a002a1461016457610070565b806327506f53146100755780632e7700f0146100a05780633fad1834146100cb575b600080fd5b34801561008157600080fd5b5061008a61018f565b6040516100979190611604565b60405180910390f35b3480156100ac57600080fd5b506100b5610340565b6040516100c291906116a6565b60405180910390f35b3480156100d757600080fd5b506100e0610349565b6040516100ed91906116a6565b60405180910390f35b34801561010257600080fd5b5061011d60048036038101906101189190610fcf565b610353565b005b61013960048036038101906101349190611036565b610527565b005b34801561014757600080fd5b50610162600480360381019061015d9190610f68565b610ab6565b005b34801561017057600080fd5b50610179610c52565b60405161018691906115e2565b60405180910390f35b60606002805480602002602001604051908101604052809291908181526020016000905b8282101561033757838290600052602060002090600502016040518060a00160405290816000820160009054906101000a900473ffffffffffffffffffffffffffffffffffffffff1673ffffffffffffffffffffffffffffffffffffffff1673ffffffffffffffffffffffffffffffffffffffff1681526020016001820160009054906101000a900473ffffffffffffffffffffffffffffffffffffffff1673ffffffffffffffffffffffffffffffffffffffff1673ffffffffffffffffffffffffffffffffffffffff1681526020016002820154815260200160038201805461029c906119ed565b80601f01602080910402602001604051908101604052809291908181526020018280546102c8906119ed565b80156103155780601f106102ea57610100808354040283529160200191610315565b820191906000526020600020905b8154815290600101906020018083116102f857829003601f168201915b50505050508152602001600482015481525050815260200190600101906101b3565b50505050905090565b60008054905090565b6000600154905090565b60018060008282546103659190611891565b9250508190555060036040518060c001604052803373ffffffffffffffffffffffffffffffffffffffff1681526020018573ffffffffffffffffffffffffffffffffffffffff16815260200184815260200183815260200142815260200160001515815250908060018154018082558091505060019003906000526020600020906006020160009091909190915060008201518160000160006101000a81548173ffffffffffffffffffffffffffffffffffffffff021916908373ffffffffffffffffffffffffffffffffffffffff16021790555060208201518160010160006101000a81548173ffffffffffffffffffffffffffffffffffffffff021916908373ffffffffffffffffffffffffffffffffffffffff1602179055506040820151816002015560608201518160030190805190602001906104a7929190610e1e565b506080820151816004015560a08201518160050160006101000a81548160ff02191690831515021790555050507f63af15859b84f465f724fbd16b60cedf4ddced0f8a0ac2d3efeecfb1e593aafe6001805461050391906118e7565b338585854260405161051a969594939291906116c1565b60405180910390a1505050565b600154811061056b576040517f08c379a000000000000000000000000000000000000000000000000000000000815260040161056290611626565b60405180910390fd5b6000600382815481106105a7577f4e487b7100000000000000000000000000000000000000000000000000000000600052603260045260246000fd5b906000526020600020906006020190508060010160009054906101000a900473ffffffffffffffffffffffffffffffffffffffff1673ffffffffffffffffffffffffffffffffffffffff163373ffffffffffffffffffffffffffffffffffffffff1614610649576040517f08c379a000000000000000000000000000000000000000000000000000000000815260040161064090611646565b60405180910390fd5b8060050160009054906101000a900460ff161561069b576040517f08c379a000000000000000000000000000000000000000000000000000000000815260040161069290611666565b60405180910390fd5b806002015434146106e1576040517f08c379a00000000000000000000000000000000000000000000000000000000081526004016106d890611686565b60405180910390fd5b8060000160009054906101000a900473ffffffffffffffffffffffffffffffffffffffff1673ffffffffffffffffffffffffffffffffffffffff166108fc349081150290604051600060405180830381858888f1935050505015801561074b573d6000803e3d6000fd5b5060018160050160006101000a81548160ff021916908315150217905550600160008082825461077b9190611891565b9250508190555060026040518060a001604052808360010160009054906101000a900473ffffffffffffffffffffffffffffffffffffffff1673ffffffffffffffffffffffffffffffffffffffff1681526020018360000160009054906101000a900473ffffffffffffffffffffffffffffffffffffffff1673ffffffffffffffffffffffffffffffffffffffff16815260200183600201548152602001836003018054610828906119ed565b80601f0160208091040260200160405190810160405280929190818152602001828054610854906119ed565b80156108a15780601f10610876576101008083540402835291602001916108a1565b820191906000526020600020905b81548152906001019060200180831161088457829003601f168201915b5050505050815260200142815250908060018154018082558091505060019003906000526020600020906005020160009091909190915060008201518160000160006101000a81548173ffffffffffffffffffffffffffffffffffffffff021916908373ffffffffffffffffffffffffffffffffffffffff16021790555060208201518160010160006101000a81548173ffffffffffffffffffffffffffffffffffffffff021916908373ffffffffffffffffffffffffffffffffffffffff16021790555060408201518160020155606082015181600301908051906020019061098c929190610e1e565b506080820151816004015550507fc4b32d7ff75a51e487f3cbb5d3202f2efecca1f4c2b987e0039c1d3220b48a838160010160009054906101000a900473ffffffffffffffffffffffffffffffffffffffff168260000160009054906101000a900473ffffffffffffffffffffffffffffffffffffffff1683600201548460030142604051610a1f959493929190611588565b60405180910390a17fc7ce815728ca4f264c09fa0b7a741ecf81296e918974ae3fce79637d3d7c992a828260000160009054906101000a900473ffffffffffffffffffffffffffffffffffffffff168360010160009054906101000a900473ffffffffffffffffffffffffffffffffffffffff16846002015442604051610aaa959493929190611729565b60405180910390a15050565b6001600080828254610ac89190611891565b9250508190555060026040518060a001604052803373ffffffffffffffffffffffffffffffffffffffff1681526020018573ffffffffffffffffffffffffffffffffffffffff16815260200184815260200183815260200142815250908060018154018082558091505060019003906000526020600020906005020160009091909190915060008201518160000160006101000a81548173ffffffffffffffffffffffffffffffffffffffff021916908373ffffffffffffffffffffffffffffffffffffffff16021790555060208201518160010160006101000a81548173ffffffffffffffffffffffffffffffffffffffff021916908373ffffffffffffffffffffffffffffffffffffffff160217905550604082015181600201556060820151816003019080519060200190610c01929190610e1e565b506080820151816004015550507fc4b32d7ff75a51e487f3cbb5d3202f2efecca1f4c2b987e0039c1d3220b48a833384848442604051610c4595949392919061152e565b60405180910390a1505050565b60606003805480602002602001604051908101604052809291908181526020016000905b82821015610e1557838290600052602060002090600602016040518060c00160405290816000820160009054906101000a900473ffffffffffffffffffffffffffffffffffffffff1673ffffffffffffffffffffffffffffffffffffffff1673ffffffffffffffffffffffffffffffffffffffff1681526020016001820160009054906101000a900473ffffffffffffffffffffffffffffffffffffffff1673ffffffffffffffffffffffffffffffffffffffff1673ffffffffffffffffffffffffffffffffffffffff16815260200160028201548152602001600382018054610d5f906119ed565b80601f0160208091040260200160405190810160405280929190818152602001828054610d8b906119ed565b8015610dd85780601f10610dad57610100808354040283529160200191610dd8565b820191906000526020600020905b815481529060010190602001808311610dbb57829003601f168201915b50505050508152602001600482015481526020016005820160009054906101000a900460ff16151515158152505081526020019060010190610c76565b50505050905090565b828054610e2a906119ed565b90600052602060002090601f016020900481019282610e4c5760008555610e93565b82601f10610e6557805160ff1916838001178555610e93565b82800160010185558215610e93579182015b82811115610e92578251825591602001919060010190610e77565b5b509050610ea09190610ea4565b5090565b5b80821115610ebd576000816000905550600101610ea5565b5090565b6000610ed4610ecf846117ad565b61177c565b905082815260208101848484011115610eec57600080fd5b610ef78482856119ab565b509392505050565b600081359050610f0e81611abd565b92915050565b600081359050610f2381611ad4565b92915050565b600082601f830112610f3a57600080fd5b8135610f4a848260208601610ec1565b91505092915050565b600081359050610f6281611aeb565b92915050565b600080600060608486031215610f7d57600080fd5b6000610f8b86828701610f14565b9350506020610f9c86828701610f53565b925050604084013567ffffffffffffffff811115610fb957600080fd5b610fc586828701610f29565b9150509250925092565b600080600060608486031215610fe457600080fd5b6000610ff286828701610eff565b935050602061100386828701610f53565b925050604084013567ffffffffffffffff81111561102057600080fd5b61102c86828701610f29565b9150509250925092565b60006020828403121561104857600080fd5b600061105684828501610f53565b91505092915050565b600061106b8383611411565b905092915050565b600061107f838361149a565b905092915050565b61109081611975565b82525050565b61109f8161191b565b82525050565b6110ae8161191b565b82525050565b60006110bf82611812565b6110c9818561184d565b9350836020820285016110db856117dd565b8060005b8581101561111757848403895281516110f8858261105f565b945061110383611833565b925060208a019950506001810190506110df565b50829750879550505050505092915050565b60006111348261181d565b61113e818561185e565b935083602082028501611150856117ed565b8060005b8581101561118c578484038952815161116d8582611073565b945061117883611840565b925060208a01995050600181019050611154565b50829750879550505050505092915050565b6111a78161193f565b82525050565b60006111b882611828565b6111c2818561186f565b93506111d28185602086016119ba565b6111db81611aac565b840191505092915050565b60006111f182611828565b6111fb8185611880565b935061120b8185602086016119ba565b61121481611aac565b840191505092915050565b6000815461122c816119ed565b6112368186611880565b94506001821660008114611251576001811461126357611296565b60ff1983168652602086019350611296565b61126c856117fd565b60005b8381101561128e5781548189015260018201915060208101905061126f565b808801955050505b50505092915050565b60006112ac601783611880565b91507f5265717565737420646f6573206e6f742065786973742e0000000000000000006000830152602082019050919050565b60006112ec602783611880565b91507f4f6e6c79207468652072657175657374656420616464726573732063616e206160008301527f7070726f76652e000000000000000000000000000000000000000000000000006020830152604082019050919050565b6000611352602383611880565b91507f526571756573742068617320616c7265616479206265656e2066756c66696c6c60008301527f65642e00000000000000000000000000000000000000000000000000000000006020830152604082019050919050565b60006113b8602983611880565b91507f53656e74204554482076616c7565206d757374206d617463682072657175657360008301527f7420616d6f756e742e00000000000000000000000000000000000000000000006020830152604082019050919050565b600060c0830160008301516114296000860182611096565b50602083015161143c6020860182611096565b50604083015161144f6040860182611510565b506060830151848203606086015261146782826111ad565b915050608083015161147c6080860182611510565b5060a083015161148f60a086018261119e565b508091505092915050565b600060a0830160008301516114b26000860182611096565b5060208301516114c56020860182611096565b5060408301516114d86040860182611510565b50606083015184820360608601526114f082826111ad565b91505060808301516115056080860182611510565b508091505092915050565b6115198161196b565b82525050565b6115288161196b565b82525050565b600060a08201905061154360008301886110a5565b6115506020830187611087565b61155d604083018661151f565b818103606083015261156f81856111e6565b905061157e608083018461151f565b9695505050505050565b600060a08201905061159d60008301886110a5565b6115aa60208301876110a5565b6115b7604083018661151f565b81810360608301526115c9818561121f565b90506115d8608083018461151f565b9695505050505050565b600060208201905081810360008301526115fc81846110b4565b905092915050565b6000602082019050818103600083015261161e8184611129565b905092915050565b6000602082019050818103600083015261163f8161129f565b9050919050565b6000602082019050818103600083015261165f816112df565b9050919050565b6000602082019050818103600083015261167f81611345565b9050919050565b6000602082019050818103600083015261169f816113ab565b9050919050565b60006020820190506116bb600083018461151f565b92915050565b600060c0820190506116d6600083018961151f565b6116e360208301886110a5565b6116f060408301876110a5565b6116fd606083018661151f565b818103608083015261170f81856111e6565b905061171e60a083018461151f565b979650505050505050565b600060a08201905061173e600083018861151f565b61174b60208301876110a5565b61175860408301866110a5565b611765606083018561151f565b611772608083018461151f565b9695505050505050565b6000604051905081810181811067ffffffffffffffff821117156117a3576117a2611a7d565b5b8060405250919050565b600067ffffffffffffffff8211156117c8576117c7611a7d565b5b601f19601f8301169050602081019050919050565b6000819050602082019050919050565b6000819050602082019050919050565b60008190508160005260206000209050919050565b600081519050919050565b600081519050919050565b600081519050919050565b6000602082019050919050565b6000602082019050919050565b600082825260208201905092915050565b600082825260208201905092915050565b600082825260208201905092915050565b600082825260208201905092915050565b600061189c8261196b565b91506118a78361196b565b9250827fffffffffffffffffffffffffffffffffffffffffffffffffffffffffffffffff038211156118dc576118db611a1f565b5b828201905092915050565b60006118f28261196b565b91506118fd8361196b565b9250828210156119105761190f611a1f565b5b828203905092915050565b60006119268261194b565b9050919050565b60006119388261194b565b9050919050565b60008115159050919050565b600073ffffffffffffffffffffffffffffffffffffffff82169050919050565b6000819050919050565b600061198082611987565b9050919050565b600061199282611999565b9050919050565b60006119a48261194b565b9050919050565b82818337600083830152505050565b60005b838110156119d85780820151818401526020810190506119bd565b838111156119e7576000848401525b50505050565b60006002820490506001821680611a0557607f821691505b60208210811415611a1957611a18611a4e565b5b50919050565b7f4e487b7100000000000000000000000000000000000000000000000000000000600052601160045260246000fd5b7f4e487b7100000000000000000000000000000000000000000000000000000000600052602260045260246000fd5b7f4e487b7100000000000000000000000000000000000000000000000000000000600052604160045260246000fd5b6000601f19601f8301169050919050565b611ac68161191b565b8114611ad157600080fd5b50565b611add8161192d565b8114611ae857600080fd5b50565b611af48161196b565b8114611aff57600080fd5b5056fea26469706673582212206a100d574b6b9bd00dba46eb2801acc91f4930cd3eb5f0ab49b7a3558aff844464736f6c63430008000033",
  "linkReferences": {},
  "deployedLinkReferences": {}
}