{
  "_format": "hh-sol-artifact-1",
  "contractName": "Transactions",
  "sourceName": "contracts/Transactions.sol",
  "abi": [
    {
      "anonymous": false,
      "inputs": [
        {
          "indexed": false,
          "internalType": "address",
          "name": "requester",
          "type": "address"
        },
        {
          "indexed": false,
          "internalType": "address",
          "name": "from",
          "type": "address"
        },
        {
          "indexed": false,
          "internalType": "uint256",
          "name": "amount",
          "type": "uint256"
        },
        {
          "indexed": false,
          "internalType": "string",
          "name": "message",
          "type": "string"
        },
        {
          "indexed": false,
          "internalType": "uint256",
          "name": "timestamp",
          "type": "uint256"
        }
      ],
      "name": "RequestETH",
      "type": "event"
    },
    {
      "anonymous": false,
      "inputs": [
        {
          "indexed": false,
          "internalType": "address",
          "name": "from",
          "type": "address"
        },
        {
          "indexed": false,
          "internalType": "address",
          "name": "receiver",
          "type": "address"
        },
        {
          "indexed": false,
          "internalType": "uint256",
          "name": "amount",
          "type": "uint256"
        },
        {
          "indexed": false,
          "internalType": "string",
          "name": "message",
          "type": "string"
        },
        {
          "indexed": false,
          "internalType": "uint256",
          "name": "timestamp",
          "type": "uint256"
        }
      ],
      "name": "Transfer",
      "type": "event"
    },
    {
      "inputs": [
        {
          "internalType": "address payable",
          "name": "receiver",
          "type": "address"
        },
        {
          "internalType": "uint256",
          "name": "amount",
          "type": "uint256"
        },
        {
          "internalType": "string",
          "name": "message",
          "type": "string"
        }
      ],
      "name": "addToBlockchain",
      "outputs": [],
      "stateMutability": "nonpayable",
      "type": "function"
    },
    {
      "inputs": [
        {
          "internalType": "uint256",
          "name": "requestId",
          "type": "uint256"
        }
      ],
      "name": "approveRequest",
      "outputs": [],
      "stateMutability": "payable",
      "type": "function"
    },
    {
      "inputs": [],
      "name": "getAllRequests",
      "outputs": [
        {
          "components": [
            {
              "internalType": "address",
              "name": "requester",
              "type": "address"
            },
            {
              "internalType": "address",
              "name": "from",
              "type": "address"
            },
            {
              "internalType": "uint256",
              "name": "amount",
              "type": "uint256"
            },
            {
              "internalType": "string",
              "name": "message",
              "type": "string"
            },
            {
              "internalType": "uint256",
              "name": "timestamp",
              "type": "uint256"
            },
            {
              "internalType": "bool",
              "name": "fulfilled",
              "type": "bool"
            }
          ],
          "internalType": "struct Transactions.RequestStruct[]",
          "name": "",
          "type": "tuple[]"
        }
      ],
      "stateMutability": "view",
      "type": "function"
    },
    {
      "inputs": [],
      "name": "getAllTransactions",
      "outputs": [
        {
          "components": [
            {
              "internalType": "address",
              "name": "sender",
              "type": "address"
            },
            {
              "internalType": "address",
              "name": "receiver",
              "type": "address"
            },
            {
              "internalType": "uint256",
              "name": "amount",
              "type": "uint256"
            },
            {
              "internalType": "string",
              "name": "message",
              "type": "string"
            },
            {
              "internalType": "uint256",
              "name": "timestamp",
              "type": "uint256"
            }
          ],
          "internalType": "struct Transactions.TransferStruct[]",
          "name": "",
          "type": "tuple[]"
        }
      ],
      "stateMutability": "view",
      "type": "function"
    },
    {
      "inputs": [],
      "name": "getRequestCount",
      "outputs": [
        {
          "internalType": "uint256",
          "name": "",
          "type": "uint256"
        }
      ],
      "stateMutability": "view",
      "type": "function"
    },
    {
      "inputs": [],
      "name": "getTransactionCount",
      "outputs": [
        {
          "internalType": "uint256",
          "name": "",
          "type": "uint256"
        }
      ],
      "stateMutability": "view",
      "type": "function"
    },
    {
      "inputs": [
        {
          "internalType": "address",
          "name": "from",
          "type": "address"
        },
        {
          "internalType": "uint256",
          "name": "amount",
          "type": "uint256"
        },
        {
          "internalType": "string",
          "name": "message",
          "type": "string"
        }
      ],
      "name": "requestETH",
      "outputs": [],
      "stateMutability": "nonpayable",
      "type": "function"
    }
  ],
  "bytecode": "0x608060405234801561001057600080fd5b506119e9806100206000396000f3fe6080604052600436106100705760003560e01c8063a023a5d01161004e578063a023a5d0146100f6578063d7d1bbdb1461011f578063eb12da4a1461013b578063fb1a002a1461016457610070565b806327506f53146100755780632e7700f0146100a05780633fad1834146100cb575b600080fd5b34801561008157600080fd5b5061008a61018f565b60405161009791906115a4565b60405180910390f35b3480156100ac57600080fd5b506100b5610340565b6040516100c29190611646565b60405180910390f35b3480156100d757600080fd5b506100e0610349565b6040516100ed9190611646565b60405180910390f35b34801561010257600080fd5b5061011d60048036038101906101189190610f3b565b610353565b005b61013960048036038101906101349190610fa2565b610518565b005b34801561014757600080fd5b50610162600480360381019061015d9190610ed4565b610a22565b005b34801561017057600080fd5b50610179610bbe565b6040516101869190611582565b60405180910390f35b60606002805480602002602001604051908101604052809291908181526020016000905b8282101561033757838290600052602060002090600502016040518060a00160405290816000820160009054906101000a900473ffffffffffffffffffffffffffffffffffffffff1673ffffffffffffffffffffffffffffffffffffffff1673ffffffffffffffffffffffffffffffffffffffff1681526020016001820160009054906101000a900473ffffffffffffffffffffffffffffffffffffffff1673ffffffffffffffffffffffffffffffffffffffff1673ffffffffffffffffffffffffffffffffffffffff1681526020016002820154815260200160038201805461029c9061189e565b80601f01602080910402602001604051908101604052809291908181526020018280546102c89061189e565b80156103155780601f106102ea57610100808354040283529160200191610315565b820191906000526020600020905b8154815290600101906020018083116102f857829003601f168201915b50505050508152602001600482015481525050815260200190600101906101b3565b50505050905090565b60008054905090565b6000600154905090565b60018060008282546103659190611776565b9250508190555060036040518060c001604052803373ffffffffffffffffffffffffffffffffffffffff1681526020018573ffffffffffffffffffffffffffffffffffffffff16815260200184815260200183815260200142815260200160001515815250908060018154018082558091505060019003906000526020600020906006020160009091909190915060008201518160000160006101000a81548173ffffffffffffffffffffffffffffffffffffffff021916908373ffffffffffffffffffffffffffffffffffffffff16021790555060208201518160010160006101000a81548173ffffffffffffffffffffffffffffffffffffffff021916908373ffffffffffffffffffffffffffffffffffffffff1602179055506040820151816002015560608201518160030190805190602001906104a7929190610d8a565b506080820151816004015560a08201518160050160006101000a81548160ff02191690831515021790555050507f032762747e8edc650e34f1ff6c929676299106f6143802ac3c32306b56e6f34a338484844260405161050b9594939291906114ce565b60405180910390a1505050565b600154811061055c576040517f08c379a0000000000000000000000000000000000000000000000000000000008152600401610553906115e6565b60405180910390fd5b600060038281548110610598577f4e487b7100000000000000000000000000000000000000000000000000000000600052603260045260246000fd5b906000526020600020906006020190508060010160009054906101000a900473ffffffffffffffffffffffffffffffffffffffff1673ffffffffffffffffffffffffffffffffffffffff163373ffffffffffffffffffffffffffffffffffffffff161461063a576040517f08c379a000000000000000000000000000000000000000000000000000000000815260040161063190611626565b60405180910390fd5b600015158160050160009054906101000a900460ff16151514610692576040517f08c379a000000000000000000000000000000000000000000000000000000000815260040161068990611606565b60405180910390fd5b806002015434146106d8576040517f08c379a00000000000000000000000000000000000000000000000000000000081526004016106cf906115c6565b60405180910390fd5b8060000160009054906101000a900473ffffffffffffffffffffffffffffffffffffffff1673ffffffffffffffffffffffffffffffffffffffff166108fc349081150290604051600060405180830381858888f19350505050158015610742573d6000803e3d6000fd5b5060018160050160006101000a81548160ff02191690831515021790555060016000808282546107729190611776565b9250508190555060026040518060a001604052808360010160009054906101000a900473ffffffffffffffffffffffffffffffffffffffff1673ffffffffffffffffffffffffffffffffffffffff1681526020018360000160009054906101000a900473ffffffffffffffffffffffffffffffffffffffff1673ffffffffffffffffffffffffffffffffffffffff1681526020018360020154815260200183600301805461081f9061189e565b80601f016020809104026020016040519081016040528092919081815260200182805461084b9061189e565b80156108985780601f1061086d57610100808354040283529160200191610898565b820191906000526020600020905b81548152906001019060200180831161087b57829003601f168201915b5050505050815260200142815250908060018154018082558091505060019003906000526020600020906005020160009091909190915060008201518160000160006101000a81548173ffffffffffffffffffffffffffffffffffffffff021916908373ffffffffffffffffffffffffffffffffffffffff16021790555060208201518160010160006101000a81548173ffffffffffffffffffffffffffffffffffffffff021916908373ffffffffffffffffffffffffffffffffffffffff160217905550604082015181600201556060820151816003019080519060200190610983929190610d8a565b506080820151816004015550507fc4b32d7ff75a51e487f3cbb5d3202f2efecca1f4c2b987e0039c1d3220b48a838160010160009054906101000a900473ffffffffffffffffffffffffffffffffffffffff168260000160009054906101000a900473ffffffffffffffffffffffffffffffffffffffff1683600201548460030142604051610a16959493929190611528565b60405180910390a15050565b6001600080828254610a349190611776565b9250508190555060026040518060a001604052803373ffffffffffffffffffffffffffffffffffffffff1681526020018573ffffffffffffffffffffffffffffffffffffffff16815260200184815260200183815260200142815250908060018154018082558091505060019003906000526020600020906005020160009091909190915060008201518160000160006101000a81548173ffffffffffffffffffffffffffffffffffffffff021916908373ffffffffffffffffffffffffffffffffffffffff16021790555060208201518160010160006101000a81548173ffffffffffffffffffffffffffffffffffffffff021916908373ffffffffffffffffffffffffffffffffffffffff160217905550604082015181600201556060820151816003019080519060200190610b6d929190610d8a565b506080820151816004015550507fc4b32d7ff75a51e487f3cbb5d3202f2efecca1f4c2b987e0039c1d3220b48a833384848442604051610bb1959493929190611474565b60405180910390a1505050565b60606003805480602002602001604051908101604052809291908181526020016000905b82821015610d8157838290600052602060002090600602016040518060c00160405290816000820160009054906101000a900473ffffffffffffffffffffffffffffffffffffffff1673ffffffffffffffffffffffffffffffffffffffff1673ffffffffffffffffffffffffffffffffffffffff1681526020016001820160009054906101000a900473ffffffffffffffffffffffffffffffffffffffff1673ffffffffffffffffffffffffffffffffffffffff1673ffffffffffffffffffffffffffffffffffffffff16815260200160028201548152602001600382018054610ccb9061189e565b80601f0160208091040260200160405190810160405280929190818152602001828054610cf79061189e565b8015610d445780601f10610d1957610100808354040283529160200191610d44565b820191906000526020600020905b815481529060010190602001808311610d2757829003601f168201915b50505050508152602001600482015481526020016005820160009054906101000a900460ff16151515158152505081526020019060010190610be2565b50505050905090565b828054610d969061189e565b90600052602060002090601f016020900481019282610db85760008555610dff565b82601f10610dd157805160ff1916838001178555610dff565b82800160010185558215610dff579182015b82811115610dfe578251825591602001919060010190610de3565b5b509050610e0c9190610e10565b5090565b5b80821115610e29576000816000905550600101610e11565b5090565b6000610e40610e3b84611692565b611661565b905082815260208101848484011115610e5857600080fd5b610e6384828561185c565b509392505050565b600081359050610e7a8161196e565b92915050565b600081359050610e8f81611985565b92915050565b600082601f830112610ea657600080fd5b8135610eb6848260208601610e2d565b91505092915050565b600081359050610ece8161199c565b92915050565b600080600060608486031215610ee957600080fd5b6000610ef786828701610e80565b9350506020610f0886828701610ebf565b925050604084013567ffffffffffffffff811115610f2557600080fd5b610f3186828701610e95565b9150509250925092565b600080600060608486031215610f5057600080fd5b6000610f5e86828701610e6b565b9350506020610f6f86828701610ebf565b925050604084013567ffffffffffffffff811115610f8c57600080fd5b610f9886828701610e95565b9150509250925092565b600060208284031215610fb457600080fd5b6000610fc284828501610ebf565b91505092915050565b6000610fd78383611357565b905092915050565b6000610feb83836113e0565b905092915050565b610ffc81611826565b82525050565b61100b816117cc565b82525050565b61101a816117cc565b82525050565b600061102b826116f7565b6110358185611732565b935083602082028501611047856116c2565b8060005b8581101561108357848403895281516110648582610fcb565b945061106f83611718565b925060208a0199505060018101905061104b565b50829750879550505050505092915050565b60006110a082611702565b6110aa8185611743565b9350836020820285016110bc856116d2565b8060005b858110156110f857848403895281516110d98582610fdf565b94506110e483611725565b925060208a019950506001810190506110c0565b50829750879550505050505092915050565b611113816117f0565b82525050565b60006111248261170d565b61112e8185611754565b935061113e81856020860161186b565b6111478161195d565b840191505092915050565b600061115d8261170d565b6111678185611765565b935061117781856020860161186b565b6111808161195d565b840191505092915050565b600081546111988161189e565b6111a28186611765565b945060018216600081146111bd57600181146111cf57611202565b60ff1983168652602086019350611202565b6111d8856116e2565b60005b838110156111fa578154818901526001820191506020810190506111db565b808801955050505b50505092915050565b6000611218601683611765565b91507f496e73756666696369656e74204554482073656e742e000000000000000000006000830152602082019050919050565b6000611258601783611765565b91507f5265717565737420646f6573206e6f742065786973742e0000000000000000006000830152602082019050919050565b6000611298602383611765565b91507f526571756573742068617320616c7265616479206265656e2066756c66696c6c60008301527f65642e00000000000000000000000000000000000000000000000000000000006020830152604082019050919050565b60006112fe603383611765565b91507f4f6e6c79207468652072657175657374656420616464726573732063616e206160008301527f7070726f76652074686520726571756573742e000000000000000000000000006020830152604082019050919050565b600060c08301600083015161136f6000860182611002565b5060208301516113826020860182611002565b5060408301516113956040860182611456565b50606083015184820360608601526113ad8282611119565b91505060808301516113c26080860182611456565b5060a08301516113d560a086018261110a565b508091505092915050565b600060a0830160008301516113f86000860182611002565b50602083015161140b6020860182611002565b50604083015161141e6040860182611456565b50606083015184820360608601526114368282611119565b915050608083015161144b6080860182611456565b508091505092915050565b61145f8161181c565b82525050565b61146e8161181c565b82525050565b600060a0820190506114896000830188611011565b6114966020830187610ff3565b6114a36040830186611465565b81810360608301526114b58185611152565b90506114c46080830184611465565b9695505050505050565b600060a0820190506114e36000830188611011565b6114f06020830187611011565b6114fd6040830186611465565b818103606083015261150f8185611152565b905061151e6080830184611465565b9695505050505050565b600060a08201905061153d6000830188611011565b61154a6020830187611011565b6115576040830186611465565b8181036060830152611569818561118b565b90506115786080830184611465565b9695505050505050565b6000602082019050818103600083015261159c8184611020565b905092915050565b600060208201905081810360008301526115be8184611095565b905092915050565b600060208201905081810360008301526115df8161120b565b9050919050565b600060208201905081810360008301526115ff8161124b565b9050919050565b6000602082019050818103600083015261161f8161128b565b9050919050565b6000602082019050818103600083015261163f816112f1565b9050919050565b600060208201905061165b6000830184611465565b92915050565b6000604051905081810181811067ffffffffffffffff821117156116885761168761192e565b5b8060405250919050565b600067ffffffffffffffff8211156116ad576116ac61192e565b5b601f19601f8301169050602081019050919050565b6000819050602082019050919050565b6000819050602082019050919050565b60008190508160005260206000209050919050565b600081519050919050565b600081519050919050565b600081519050919050565b6000602082019050919050565b6000602082019050919050565b600082825260208201905092915050565b600082825260208201905092915050565b600082825260208201905092915050565b600082825260208201905092915050565b60006117818261181c565b915061178c8361181c565b9250827fffffffffffffffffffffffffffffffffffffffffffffffffffffffffffffffff038211156117c1576117c06118d0565b5b828201905092915050565b60006117d7826117fc565b9050919050565b60006117e9826117fc565b9050919050565b60008115159050919050565b600073ffffffffffffffffffffffffffffffffffffffff82169050919050565b6000819050919050565b600061183182611838565b9050919050565b60006118438261184a565b9050919050565b6000611855826117fc565b9050919050565b82818337600083830152505050565b60005b8381101561188957808201518184015260208101905061186e565b83811115611898576000848401525b50505050565b600060028204905060018216806118b657607f821691505b602082108114156118ca576118c96118ff565b5b50919050565b7f4e487b7100000000000000000000000000000000000000000000000000000000600052601160045260246000fd5b7f4e487b7100000000000000000000000000000000000000000000000000000000600052602260045260246000fd5b7f4e487b7100000000000000000000000000000000000000000000000000000000600052604160045260246000fd5b6000601f19601f8301169050919050565b611977816117cc565b811461198257600080fd5b50565b61198e816117de565b811461199957600080fd5b50565b6119a58161181c565b81146119b057600080fd5b5056fea2646970667358221220dba6718020d7dc6355f5ff48f6258d0651c7b7b851417219161e3c6eb7771c5964736f6c63430008000033",
  "linkReferences": {},
  "deployedLinkReferences": {}
}